{
  "_format": "hh-sol-artifact-1",
  "contractName": "Token1155",
  "sourceName": "contracts/Token1155.sol",
  "abi": [
    {
      "inputs": [
        {
          "internalType": "string",
          "name": "name_",
          "type": "string"
        },
        {
          "internalType": "string",
          "name": "ipfs",
          "type": "string"
        }
      ],
      "stateMutability": "nonpayable",
      "type": "constructor"
    },
    {
      "anonymous": false,
      "inputs": [
        {
          "indexed": true,
          "internalType": "address",
          "name": "account",
          "type": "address"
        },
        {
          "indexed": true,
          "internalType": "address",
          "name": "operator",
          "type": "address"
        },
        {
          "indexed": false,
          "internalType": "bool",
          "name": "approved",
          "type": "bool"
        }
      ],
      "name": "ApprovalForAll",
      "type": "event"
    },
    {
      "anonymous": false,
      "inputs": [
        {
          "indexed": true,
          "internalType": "address",
          "name": "previousOwner",
          "type": "address"
        },
        {
          "indexed": true,
          "internalType": "address",
          "name": "newOwner",
          "type": "address"
        }
      ],
      "name": "OwnershipTransferred",
      "type": "event"
    },
    {
      "anonymous": false,
      "inputs": [
        {
          "indexed": true,
          "internalType": "address",
          "name": "operator",
          "type": "address"
        },
        {
          "indexed": true,
          "internalType": "address",
          "name": "from",
          "type": "address"
        },
        {
          "indexed": true,
          "internalType": "address",
          "name": "to",
          "type": "address"
        },
        {
          "indexed": false,
          "internalType": "uint256[]",
          "name": "ids",
          "type": "uint256[]"
        },
        {
          "indexed": false,
          "internalType": "uint256[]",
          "name": "values",
          "type": "uint256[]"
        }
      ],
      "name": "TransferBatch",
      "type": "event"
    },
    {
      "anonymous": false,
      "inputs": [
        {
          "indexed": true,
          "internalType": "address",
          "name": "operator",
          "type": "address"
        },
        {
          "indexed": true,
          "internalType": "address",
          "name": "from",
          "type": "address"
        },
        {
          "indexed": true,
          "internalType": "address",
          "name": "to",
          "type": "address"
        },
        {
          "indexed": false,
          "internalType": "uint256",
          "name": "id",
          "type": "uint256"
        },
        {
          "indexed": false,
          "internalType": "uint256",
          "name": "value",
          "type": "uint256"
        }
      ],
      "name": "TransferSingle",
      "type": "event"
    },
    {
      "anonymous": false,
      "inputs": [
        {
          "indexed": false,
          "internalType": "string",
          "name": "value",
          "type": "string"
        },
        {
          "indexed": true,
          "internalType": "uint256",
          "name": "id",
          "type": "uint256"
        }
      ],
      "name": "URI",
      "type": "event"
    },
    {
      "inputs": [
        {
          "internalType": "address",
          "name": "account",
          "type": "address"
        },
        {
          "internalType": "uint256",
          "name": "id",
          "type": "uint256"
        }
      ],
      "name": "balanceOf",
      "outputs": [
        {
          "internalType": "uint256",
          "name": "",
          "type": "uint256"
        }
      ],
      "stateMutability": "view",
      "type": "function"
    },
    {
      "inputs": [
        {
          "internalType": "address[]",
          "name": "accounts",
          "type": "address[]"
        },
        {
          "internalType": "uint256[]",
          "name": "ids",
          "type": "uint256[]"
        }
      ],
      "name": "balanceOfBatch",
      "outputs": [
        {
          "internalType": "uint256[]",
          "name": "",
          "type": "uint256[]"
        }
      ],
      "stateMutability": "view",
      "type": "function"
    },
    {
      "inputs": [],
      "name": "getName",
      "outputs": [
        {
          "internalType": "string",
          "name": "",
          "type": "string"
        }
      ],
      "stateMutability": "view",
      "type": "function"
    },
    {
      "inputs": [
        {
          "internalType": "address",
          "name": "account",
          "type": "address"
        },
        {
          "internalType": "address",
          "name": "operator",
          "type": "address"
        }
      ],
      "name": "isApprovedForAll",
      "outputs": [
        {
          "internalType": "bool",
          "name": "",
          "type": "bool"
        }
      ],
      "stateMutability": "view",
      "type": "function"
    },
    {
      "inputs": [
        {
          "internalType": "address",
          "name": "account",
          "type": "address"
        },
        {
          "internalType": "uint256",
          "name": "id",
          "type": "uint256"
        },
        {
          "internalType": "uint256",
          "name": "amount",
          "type": "uint256"
        },
        {
          "internalType": "bytes",
          "name": "data",
          "type": "bytes"
        }
      ],
      "name": "mint",
      "outputs": [],
      "stateMutability": "nonpayable",
      "type": "function"
    },
    {
      "inputs": [
        {
          "internalType": "address",
          "name": "to",
          "type": "address"
        },
        {
          "internalType": "uint256[]",
          "name": "ids",
          "type": "uint256[]"
        },
        {
          "internalType": "uint256[]",
          "name": "amounts",
          "type": "uint256[]"
        },
        {
          "internalType": "bytes",
          "name": "data",
          "type": "bytes"
        }
      ],
      "name": "mintBatch",
      "outputs": [],
      "stateMutability": "nonpayable",
      "type": "function"
    },
    {
      "inputs": [
        {
          "internalType": "address[]",
          "name": "recipients",
          "type": "address[]"
        },
        {
          "internalType": "uint256",
          "name": "id",
          "type": "uint256"
        }
      ],
      "name": "mintDrop",
      "outputs": [],
      "stateMutability": "nonpayable",
      "type": "function"
    },
    {
      "inputs": [],
      "name": "owner",
      "outputs": [
        {
          "internalType": "address",
          "name": "",
          "type": "address"
        }
      ],
      "stateMutability": "view",
      "type": "function"
    },
    {
      "inputs": [],
      "name": "renounceOwnership",
      "outputs": [],
      "stateMutability": "nonpayable",
      "type": "function"
    },
    {
      "inputs": [
        {
          "internalType": "address",
          "name": "from",
          "type": "address"
        },
        {
          "internalType": "address",
          "name": "to",
          "type": "address"
        },
        {
          "internalType": "uint256[]",
          "name": "ids",
          "type": "uint256[]"
        },
        {
          "internalType": "uint256[]",
          "name": "amounts",
          "type": "uint256[]"
        },
        {
          "internalType": "bytes",
          "name": "data",
          "type": "bytes"
        }
      ],
      "name": "safeBatchTransferFrom",
      "outputs": [],
      "stateMutability": "nonpayable",
      "type": "function"
    },
    {
      "inputs": [
        {
          "internalType": "address",
          "name": "from",
          "type": "address"
        },
        {
          "internalType": "address",
          "name": "to",
          "type": "address"
        },
        {
          "internalType": "uint256",
          "name": "id",
          "type": "uint256"
        },
        {
          "internalType": "uint256",
          "name": "amount",
          "type": "uint256"
        },
        {
          "internalType": "bytes",
          "name": "data",
          "type": "bytes"
        }
      ],
      "name": "safeTransferFrom",
      "outputs": [],
      "stateMutability": "nonpayable",
      "type": "function"
    },
    {
      "inputs": [
        {
          "internalType": "address",
          "name": "operator",
          "type": "address"
        },
        {
          "internalType": "bool",
          "name": "approved",
          "type": "bool"
        }
      ],
      "name": "setApprovalForAll",
      "outputs": [],
      "stateMutability": "nonpayable",
      "type": "function"
    },
    {
      "inputs": [
        {
          "internalType": "string",
          "name": "newuri",
          "type": "string"
        }
      ],
      "name": "setURI",
      "outputs": [],
      "stateMutability": "nonpayable",
      "type": "function"
    },
    {
      "inputs": [
        {
          "internalType": "bytes4",
          "name": "interfaceId",
          "type": "bytes4"
        }
      ],
      "name": "supportsInterface",
      "outputs": [
        {
          "internalType": "bool",
          "name": "",
          "type": "bool"
        }
      ],
      "stateMutability": "view",
      "type": "function"
    },
    {
      "inputs": [
        {
          "internalType": "address",
          "name": "newOwner",
          "type": "address"
        }
      ],
      "name": "transferOwnership",
      "outputs": [],
      "stateMutability": "nonpayable",
      "type": "function"
    },
    {
      "inputs": [
        {
          "internalType": "uint256",
          "name": "",
          "type": "uint256"
        }
      ],
      "name": "uri",
      "outputs": [
        {
          "internalType": "string",
          "name": "",
          "type": "string"
        }
      ],
      "stateMutability": "view",
      "type": "function"
    }
  ],
  "bytecode": "0x60806040523480156200001157600080fd5b5060405162003b0c38038062003b0c8339818101604052810190620000379190620002fa565b8062000049816200008460201b60201c565b506200006a6200005e6200009960201b60201c565b620000a160201b60201c565b81600490816200007b9190620005ca565b505050620006b1565b8060029081620000959190620005ca565b5050565b600033905090565b6000600360009054906101000a900473ffffffffffffffffffffffffffffffffffffffff16905081600360006101000a81548173ffffffffffffffffffffffffffffffffffffffff021916908373ffffffffffffffffffffffffffffffffffffffff1602179055508173ffffffffffffffffffffffffffffffffffffffff168173ffffffffffffffffffffffffffffffffffffffff167f8be0079c531659141344cd1fd0a4f28419497f9722a3daafe3b4186f6b6457e060405160405180910390a35050565b6000604051905090565b600080fd5b600080fd5b600080fd5b600080fd5b6000601f19601f8301169050919050565b7f4e487b7100000000000000000000000000000000000000000000000000000000600052604160045260246000fd5b620001d08262000185565b810181811067ffffffffffffffff82111715620001f257620001f162000196565b5b80604052505050565b60006200020762000167565b9050620002158282620001c5565b919050565b600067ffffffffffffffff82111562000238576200023762000196565b5b620002438262000185565b9050602081019050919050565b60005b838110156200027057808201518184015260208101905062000253565b60008484015250505050565b6000620002936200028d846200021a565b620001fb565b905082815260208101848484011115620002b257620002b162000180565b5b620002bf84828562000250565b509392505050565b600082601f830112620002df57620002de6200017b565b5b8151620002f18482602086016200027c565b91505092915050565b6000806040838503121562000314576200031362000171565b5b600083015167ffffffffffffffff81111562000335576200033462000176565b5b6200034385828601620002c7565b925050602083015167ffffffffffffffff81111562000367576200036662000176565b5b6200037585828601620002c7565b9150509250929050565b600081519050919050565b7f4e487b7100000000000000000000000000000000000000000000000000000000600052602260045260246000fd5b60006002820490506001821680620003d257607f821691505b602082108103620003e857620003e76200038a565b5b50919050565b60008190508160005260206000209050919050565b60006020601f8301049050919050565b600082821b905092915050565b600060088302620004527fffffffffffffffffffffffffffffffffffffffffffffffffffffffffffffffff8262000413565b6200045e868362000413565b95508019841693508086168417925050509392505050565b6000819050919050565b6000819050919050565b6000620004ab620004a56200049f8462000476565b62000480565b62000476565b9050919050565b6000819050919050565b620004c7836200048a565b620004df620004d682620004b2565b84845462000420565b825550505050565b600090565b620004f6620004e7565b62000503818484620004bc565b505050565b5b818110156200052b576200051f600082620004ec565b60018101905062000509565b5050565b601f8211156200057a576200054481620003ee565b6200054f8462000403565b810160208510156200055f578190505b620005776200056e8562000403565b83018262000508565b50505b505050565b600082821c905092915050565b60006200059f600019846008026200057f565b1980831691505092915050565b6000620005ba83836200058c565b9150826002028217905092915050565b620005d5826200037f565b67ffffffffffffffff811115620005f157620005f062000196565b5b620005fd8254620003b9565b6200060a8282856200052f565b600060209050601f8311600181146200064257600084156200062d578287015190505b620006398582620005ac565b865550620006a9565b601f1984166200065286620003ee565b60005b828110156200067c5784890151825560018201915060208501945060208101905062000655565b868310156200069c578489015162000698601f8916826200058c565b8355505b6001600288020188555050505b505050505050565b61344b80620006c16000396000f3fe608060405234801561001057600080fd5b50600436106100ff5760003560e01c80635820e53611610097578063a22cb46511610066578063a22cb46514610296578063e985e9c5146102b2578063f242432a146102e2578063f2fde38b146102fe576100ff565b80635820e53614610236578063715018a614610252578063731133e91461025c5780638da5cb5b14610278576100ff565b806317d7de7c116100d357806317d7de7c146101b05780631f7fdffa146101ce5780632eb2c2d6146101ea5780634e1273f414610206576100ff565b8062fdd58e1461010457806301ffc9a71461013457806302fe5305146101645780630e89341c14610180575b600080fd5b61011e60048036038101906101199190611c2a565b61031a565b60405161012b9190611c79565b60405180910390f35b61014e60048036038101906101499190611cec565b6103e2565b60405161015b9190611d34565b60405180910390f35b61017e60048036038101906101799190611e95565b6104c4565b005b61019a60048036038101906101959190611ede565b6104d8565b6040516101a79190611f8a565b60405180910390f35b6101b861056c565b6040516101c59190611f8a565b60405180910390f35b6101e860048036038101906101e39190612115565b6105fe565b005b61020460048036038101906101ff91906121d0565b610618565b005b610220600480360381019061021b9190612362565b6106b9565b60405161022d9190612498565b60405180910390f35b610250600480360381019061024b91906124ba565b6107d2565b005b61025a610834565b005b61027660048036038101906102719190612516565b610848565b005b610280610862565b60405161028d91906125a8565b60405180910390f35b6102b060048036038101906102ab91906125ef565b61088c565b005b6102cc60048036038101906102c7919061262f565b6108a2565b6040516102d99190611d34565b60405180910390f35b6102fc60048036038101906102f7919061266f565b610936565b005b61031860048036038101906103139190612706565b6109d7565b005b60008073ffffffffffffffffffffffffffffffffffffffff168373ffffffffffffffffffffffffffffffffffffffff160361038a576040517f08c379a0000000000000000000000000000000000000000000000000000000008152600401610381906127a5565b60405180910390fd5b60008083815260200190815260200160002060008473ffffffffffffffffffffffffffffffffffffffff1673ffffffffffffffffffffffffffffffffffffffff16815260200190815260200160002054905092915050565b60007fd9b67a26000000000000000000000000000000000000000000000000000000007bffffffffffffffffffffffffffffffffffffffffffffffffffffffff1916827bffffffffffffffffffffffffffffffffffffffffffffffffffffffff191614806104ad57507f0e89341c000000000000000000000000000000000000000000000000000000007bffffffffffffffffffffffffffffffffffffffffffffffffffffffff1916827bffffffffffffffffffffffffffffffffffffffffffffffffffffffff1916145b806104bd57506104bc82610a5a565b5b9050919050565b6104cc610ac4565b6104d581610b42565b50565b6060600280546104e7906127f4565b80601f0160208091040260200160405190810160405280929190818152602001828054610513906127f4565b80156105605780601f1061053557610100808354040283529160200191610560565b820191906000526020600020905b81548152906001019060200180831161054357829003601f168201915b50505050509050919050565b60606004805461057b906127f4565b80601f01602080910402602001604051908101604052809291908181526020018280546105a7906127f4565b80156105f45780601f106105c9576101008083540402835291602001916105f4565b820191906000526020600020905b8154815290600101906020018083116105d757829003601f168201915b5050505050905090565b610606610ac4565b61061284848484610b55565b50505050565b610620610d81565b73ffffffffffffffffffffffffffffffffffffffff168573ffffffffffffffffffffffffffffffffffffffff161480610666575061066585610660610d81565b6108a2565b5b6106a5576040517f08c379a000000000000000000000000000000000000000000000000000000000815260040161069c90612897565b60405180910390fd5b6106b28585858585610d89565b5050505050565b606081518351146106ff576040517f08c379a00000000000000000000000000000000000000000000000000000000081526004016106f690612929565b60405180910390fd5b6000835167ffffffffffffffff81111561071c5761071b611d6a565b5b60405190808252806020026020018201604052801561074a5781602001602082028036833780820191505090505b50905060005b84518110156107c75761079785828151811061076f5761076e612949565b5b602002602001015185838151811061078a57610789612949565b5b602002602001015161031a565b8282815181106107aa576107a9612949565b5b602002602001018181525050806107c0906129a7565b9050610750565b508091505092915050565b6107da610ac4565b60005b825181101561082f5761081c8382815181106107fc576107fb612949565b5b6020026020010151836001604051806020016040528060008152506110aa565b8080610827906129a7565b9150506107dd565b505050565b61083c610ac4565b610846600061125a565b565b610850610ac4565b61085c848484846110aa565b50505050565b6000600360009054906101000a900473ffffffffffffffffffffffffffffffffffffffff16905090565b61089e610897610d81565b8383611320565b5050565b6000600160008473ffffffffffffffffffffffffffffffffffffffff1673ffffffffffffffffffffffffffffffffffffffff16815260200190815260200160002060008373ffffffffffffffffffffffffffffffffffffffff1673ffffffffffffffffffffffffffffffffffffffff16815260200190815260200160002060009054906101000a900460ff16905092915050565b61093e610d81565b73ffffffffffffffffffffffffffffffffffffffff168573ffffffffffffffffffffffffffffffffffffffff16148061098457506109838561097e610d81565b6108a2565b5b6109c3576040517f08c379a00000000000000000000000000000000000000000000000000000000081526004016109ba90612897565b60405180910390fd5b6109d0858585858561148c565b5050505050565b6109df610ac4565b600073ffffffffffffffffffffffffffffffffffffffff168173ffffffffffffffffffffffffffffffffffffffff1603610a4e576040517f08c379a0000000000000000000000000000000000000000000000000000000008152600401610a4590612a61565b60405180910390fd5b610a578161125a565b50565b60007f01ffc9a7000000000000000000000000000000000000000000000000000000007bffffffffffffffffffffffffffffffffffffffffffffffffffffffff1916827bffffffffffffffffffffffffffffffffffffffffffffffffffffffff1916149050919050565b610acc610d81565b73ffffffffffffffffffffffffffffffffffffffff16610aea610862565b73ffffffffffffffffffffffffffffffffffffffff1614610b40576040517f08c379a0000000000000000000000000000000000000000000000000000000008152600401610b3790612acd565b60405180910390fd5b565b8060029081610b519190612c99565b5050565b600073ffffffffffffffffffffffffffffffffffffffff168473ffffffffffffffffffffffffffffffffffffffff1603610bc4576040517f08c379a0000000000000000000000000000000000000000000000000000000008152600401610bbb90612ddd565b60405180910390fd5b8151835114610c08576040517f08c379a0000000000000000000000000000000000000000000000000000000008152600401610bff90612e6f565b60405180910390fd5b6000610c12610d81565b9050610c2381600087878787611727565b60005b8451811015610cdc57838181518110610c4257610c41612949565b5b6020026020010151600080878481518110610c6057610c5f612949565b5b6020026020010151815260200190815260200160002060008873ffffffffffffffffffffffffffffffffffffffff1673ffffffffffffffffffffffffffffffffffffffff1681526020019081526020016000206000828254610cc29190612e8f565b925050819055508080610cd4906129a7565b915050610c26565b508473ffffffffffffffffffffffffffffffffffffffff16600073ffffffffffffffffffffffffffffffffffffffff168273ffffffffffffffffffffffffffffffffffffffff167f4a39dc06d4c0dbc64b70af90fd698a233a518aa5d07e595d983b8c0526c8f7fb8787604051610d54929190612ec3565b60405180910390a4610d6b8160008787878761172f565b610d7a81600087878787611737565b5050505050565b600033905090565b8151835114610dcd576040517f08c379a0000000000000000000000000000000000000000000000000000000008152600401610dc490612e6f565b60405180910390fd5b600073ffffffffffffffffffffffffffffffffffffffff168473ffffffffffffffffffffffffffffffffffffffff1603610e3c576040517f08c379a0000000000000000000000000000000000000000000000000000000008152600401610e3390612f6c565b60405180910390fd5b6000610e46610d81565b9050610e56818787878787611727565b60005b8451811015611007576000858281518110610e7757610e76612949565b5b602002602001015190506000858381518110610e9657610e95612949565b5b60200260200101519050600080600084815260200190815260200160002060008b73ffffffffffffffffffffffffffffffffffffffff1673ffffffffffffffffffffffffffffffffffffffff16815260200190815260200160002054905081811015610f37576040517f08c379a0000000000000000000000000000000000000000000000000000000008152600401610f2e90612ffe565b60405180910390fd5b81810360008085815260200190815260200160002060008c73ffffffffffffffffffffffffffffffffffffffff1673ffffffffffffffffffffffffffffffffffffffff168152602001908152602001600020819055508160008085815260200190815260200160002060008b73ffffffffffffffffffffffffffffffffffffffff1673ffffffffffffffffffffffffffffffffffffffff1681526020019081526020016000206000828254610fec9190612e8f565b9250508190555050505080611000906129a7565b9050610e59565b508473ffffffffffffffffffffffffffffffffffffffff168673ffffffffffffffffffffffffffffffffffffffff168273ffffffffffffffffffffffffffffffffffffffff167f4a39dc06d4c0dbc64b70af90fd698a233a518aa5d07e595d983b8c0526c8f7fb878760405161107e929190612ec3565b60405180910390a461109481878787878761172f565b6110a2818787878787611737565b505050505050565b600073ffffffffffffffffffffffffffffffffffffffff168473ffffffffffffffffffffffffffffffffffffffff1603611119576040517f08c379a000000000000000000000000000000000000000000000000000000000815260040161111090612ddd565b60405180910390fd5b6000611123610d81565b905060006111308561190e565b9050600061113d8561190e565b905061114e83600089858589611727565b8460008088815260200190815260200160002060008973ffffffffffffffffffffffffffffffffffffffff1673ffffffffffffffffffffffffffffffffffffffff16815260200190815260200160002060008282546111ad9190612e8f565b925050819055508673ffffffffffffffffffffffffffffffffffffffff16600073ffffffffffffffffffffffffffffffffffffffff168473ffffffffffffffffffffffffffffffffffffffff167fc3d58168c5ae7397731d063d5bbf3d657854427343f4c083240f7aacaa2d0f62898960405161122b92919061301e565b60405180910390a46112428360008985858961172f565b61125183600089898989611988565b50505050505050565b6000600360009054906101000a900473ffffffffffffffffffffffffffffffffffffffff16905081600360006101000a81548173ffffffffffffffffffffffffffffffffffffffff021916908373ffffffffffffffffffffffffffffffffffffffff1602179055508173ffffffffffffffffffffffffffffffffffffffff168173ffffffffffffffffffffffffffffffffffffffff167f8be0079c531659141344cd1fd0a4f28419497f9722a3daafe3b4186f6b6457e060405160405180910390a35050565b8173ffffffffffffffffffffffffffffffffffffffff168373ffffffffffffffffffffffffffffffffffffffff160361138e576040517f08c379a0000000000000000000000000000000000000000000000000000000008152600401611385906130b9565b60405180910390fd5b80600160008573ffffffffffffffffffffffffffffffffffffffff1673ffffffffffffffffffffffffffffffffffffffff16815260200190815260200160002060008473ffffffffffffffffffffffffffffffffffffffff1673ffffffffffffffffffffffffffffffffffffffff16815260200190815260200160002060006101000a81548160ff0219169083151502179055508173ffffffffffffffffffffffffffffffffffffffff168373ffffffffffffffffffffffffffffffffffffffff167f17307eab39ab6107e8899845ad3d59bd9653f200f220920489ca2b5937696c318360405161147f9190611d34565b60405180910390a3505050565b600073ffffffffffffffffffffffffffffffffffffffff168473ffffffffffffffffffffffffffffffffffffffff16036114fb576040517f08c379a00000000000000000000000000000000000000000000000000000000081526004016114f290612f6c565b60405180910390fd5b6000611505610d81565b905060006115128561190e565b9050600061151f8561190e565b905061152f838989858589611727565b600080600088815260200190815260200160002060008a73ffffffffffffffffffffffffffffffffffffffff1673ffffffffffffffffffffffffffffffffffffffff168152602001908152602001600020549050858110156115c6576040517f08c379a00000000000000000000000000000000000000000000000000000000081526004016115bd90612ffe565b60405180910390fd5b85810360008089815260200190815260200160002060008b73ffffffffffffffffffffffffffffffffffffffff1673ffffffffffffffffffffffffffffffffffffffff168152602001908152602001600020819055508560008089815260200190815260200160002060008a73ffffffffffffffffffffffffffffffffffffffff1673ffffffffffffffffffffffffffffffffffffffff168152602001908152602001600020600082825461167b9190612e8f565b925050819055508773ffffffffffffffffffffffffffffffffffffffff168973ffffffffffffffffffffffffffffffffffffffff168573ffffffffffffffffffffffffffffffffffffffff167fc3d58168c5ae7397731d063d5bbf3d657854427343f4c083240f7aacaa2d0f628a8a6040516116f892919061301e565b60405180910390a461170e848a8a86868a61172f565b61171c848a8a8a8a8a611988565b505050505050505050565b505050505050565b505050505050565b6117568473ffffffffffffffffffffffffffffffffffffffff16611b5f565b15611906578373ffffffffffffffffffffffffffffffffffffffff1663bc197c8187878686866040518663ffffffff1660e01b815260040161179c95949392919061312e565b6020604051808303816000875af19250505080156117d857506040513d601f19601f820116820180604052508101906117d591906131ab565b60015b61187d576117e46131e5565b806308c379a00361184057506117f8613207565b806118035750611842565b806040517f08c379a00000000000000000000000000000000000000000000000000000000081526004016118379190611f8a565b60405180910390fd5b505b6040517f08c379a000000000000000000000000000000000000000000000000000000000815260040161187490613309565b60405180910390fd5b63bc197c8160e01b7bffffffffffffffffffffffffffffffffffffffffffffffffffffffff1916817bffffffffffffffffffffffffffffffffffffffffffffffffffffffff191614611904576040517f08c379a00000000000000000000000000000000000000000000000000000000081526004016118fb9061339b565b60405180910390fd5b505b505050505050565b60606000600167ffffffffffffffff81111561192d5761192c611d6a565b5b60405190808252806020026020018201604052801561195b5781602001602082028036833780820191505090505b509050828160008151811061197357611972612949565b5b60200260200101818152505080915050919050565b6119a78473ffffffffffffffffffffffffffffffffffffffff16611b5f565b15611b57578373ffffffffffffffffffffffffffffffffffffffff1663f23a6e6187878686866040518663ffffffff1660e01b81526004016119ed9594939291906133bb565b6020604051808303816000875af1925050508015611a2957506040513d601f19601f82011682018060405250810190611a2691906131ab565b60015b611ace57611a356131e5565b806308c379a003611a915750611a49613207565b80611a545750611a93565b806040517f08c379a0000000000000000000000000000000000000000000000000000000008152600401611a889190611f8a565b60405180910390fd5b505b6040517f08c379a0000000000000000000000000000000000000000000000000000000008152600401611ac590613309565b60405180910390fd5b63f23a6e6160e01b7bffffffffffffffffffffffffffffffffffffffffffffffffffffffff1916817bffffffffffffffffffffffffffffffffffffffffffffffffffffffff191614611b55576040517f08c379a0000000000000000000000000000000000000000000000000000000008152600401611b4c9061339b565b60405180910390fd5b505b505050505050565b6000808273ffffffffffffffffffffffffffffffffffffffff163b119050919050565b6000604051905090565b600080fd5b600080fd5b600073ffffffffffffffffffffffffffffffffffffffff82169050919050565b6000611bc182611b96565b9050919050565b611bd181611bb6565b8114611bdc57600080fd5b50565b600081359050611bee81611bc8565b92915050565b6000819050919050565b611c0781611bf4565b8114611c1257600080fd5b50565b600081359050611c2481611bfe565b92915050565b60008060408385031215611c4157611c40611b8c565b5b6000611c4f85828601611bdf565b9250506020611c6085828601611c15565b9150509250929050565b611c7381611bf4565b82525050565b6000602082019050611c8e6000830184611c6a565b92915050565b60007fffffffff0000000000000000000000000000000000000000000000000000000082169050919050565b611cc981611c94565b8114611cd457600080fd5b50565b600081359050611ce681611cc0565b92915050565b600060208284031215611d0257611d01611b8c565b5b6000611d1084828501611cd7565b91505092915050565b60008115159050919050565b611d2e81611d19565b82525050565b6000602082019050611d496000830184611d25565b92915050565b600080fd5b600080fd5b6000601f19601f8301169050919050565b7f4e487b7100000000000000000000000000000000000000000000000000000000600052604160045260246000fd5b611da282611d59565b810181811067ffffffffffffffff82111715611dc157611dc0611d6a565b5b80604052505050565b6000611dd4611b82565b9050611de08282611d99565b919050565b600067ffffffffffffffff821115611e0057611dff611d6a565b5b611e0982611d59565b9050602081019050919050565b82818337600083830152505050565b6000611e38611e3384611de5565b611dca565b905082815260208101848484011115611e5457611e53611d54565b5b611e5f848285611e16565b509392505050565b600082601f830112611e7c57611e7b611d4f565b5b8135611e8c848260208601611e25565b91505092915050565b600060208284031215611eab57611eaa611b8c565b5b600082013567ffffffffffffffff811115611ec957611ec8611b91565b5b611ed584828501611e67565b91505092915050565b600060208284031215611ef457611ef3611b8c565b5b6000611f0284828501611c15565b91505092915050565b600081519050919050565b600082825260208201905092915050565b60005b83811015611f45578082015181840152602081019050611f2a565b60008484015250505050565b6000611f5c82611f0b565b611f668185611f16565b9350611f76818560208601611f27565b611f7f81611d59565b840191505092915050565b60006020820190508181036000830152611fa48184611f51565b905092915050565b600067ffffffffffffffff821115611fc757611fc6611d6a565b5b602082029050602081019050919050565b600080fd5b6000611ff0611feb84611fac565b611dca565b9050808382526020820190506020840283018581111561201357612012611fd8565b5b835b8181101561203c57806120288882611c15565b845260208401935050602081019050612015565b5050509392505050565b600082601f83011261205b5761205a611d4f565b5b813561206b848260208601611fdd565b91505092915050565b600067ffffffffffffffff82111561208f5761208e611d6a565b5b61209882611d59565b9050602081019050919050565b60006120b86120b384612074565b611dca565b9050828152602081018484840111156120d4576120d3611d54565b5b6120df848285611e16565b509392505050565b600082601f8301126120fc576120fb611d4f565b5b813561210c8482602086016120a5565b91505092915050565b6000806000806080858703121561212f5761212e611b8c565b5b600061213d87828801611bdf565b945050602085013567ffffffffffffffff81111561215e5761215d611b91565b5b61216a87828801612046565b935050604085013567ffffffffffffffff81111561218b5761218a611b91565b5b61219787828801612046565b925050606085013567ffffffffffffffff8111156121b8576121b7611b91565b5b6121c4878288016120e7565b91505092959194509250565b600080600080600060a086880312156121ec576121eb611b8c565b5b60006121fa88828901611bdf565b955050602061220b88828901611bdf565b945050604086013567ffffffffffffffff81111561222c5761222b611b91565b5b61223888828901612046565b935050606086013567ffffffffffffffff81111561225957612258611b91565b5b61226588828901612046565b925050608086013567ffffffffffffffff81111561228657612285611b91565b5b612292888289016120e7565b9150509295509295909350565b600067ffffffffffffffff8211156122ba576122b9611d6a565b5b602082029050602081019050919050565b60006122de6122d98461229f565b611dca565b9050808382526020820190506020840283018581111561230157612300611fd8565b5b835b8181101561232a57806123168882611bdf565b845260208401935050602081019050612303565b5050509392505050565b600082601f83011261234957612348611d4f565b5b81356123598482602086016122cb565b91505092915050565b6000806040838503121561237957612378611b8c565b5b600083013567ffffffffffffffff81111561239757612396611b91565b5b6123a385828601612334565b925050602083013567ffffffffffffffff8111156123c4576123c3611b91565b5b6123d085828601612046565b9150509250929050565b600081519050919050565b600082825260208201905092915050565b6000819050602082019050919050565b61240f81611bf4565b82525050565b60006124218383612406565b60208301905092915050565b6000602082019050919050565b6000612445826123da565b61244f81856123e5565b935061245a836123f6565b8060005b8381101561248b5781516124728882612415565b975061247d8361242d565b92505060018101905061245e565b5085935050505092915050565b600060208201905081810360008301526124b2818461243a565b905092915050565b600080604083850312156124d1576124d0611b8c565b5b600083013567ffffffffffffffff8111156124ef576124ee611b91565b5b6124fb85828601612334565b925050602061250c85828601611c15565b9150509250929050565b600080600080608085870312156125305761252f611b8c565b5b600061253e87828801611bdf565b945050602061254f87828801611c15565b935050604061256087828801611c15565b925050606085013567ffffffffffffffff81111561258157612580611b91565b5b61258d878288016120e7565b91505092959194509250565b6125a281611bb6565b82525050565b60006020820190506125bd6000830184612599565b92915050565b6125cc81611d19565b81146125d757600080fd5b50565b6000813590506125e9816125c3565b92915050565b6000806040838503121561260657612605611b8c565b5b600061261485828601611bdf565b9250506020612625858286016125da565b9150509250929050565b6000806040838503121561264657612645611b8c565b5b600061265485828601611bdf565b925050602061266585828601611bdf565b9150509250929050565b600080600080600060a0868803121561268b5761268a611b8c565b5b600061269988828901611bdf565b95505060206126aa88828901611bdf565b94505060406126bb88828901611c15565b93505060606126cc88828901611c15565b925050608086013567ffffffffffffffff8111156126ed576126ec611b91565b5b6126f9888289016120e7565b9150509295509295909350565b60006020828403121561271c5761271b611b8c565b5b600061272a84828501611bdf565b91505092915050565b7f455243313135353a2061646472657373207a65726f206973206e6f742061207660008201527f616c6964206f776e657200000000000000000000000000000000000000000000602082015250565b600061278f602a83611f16565b915061279a82612733565b604082019050919050565b600060208201905081810360008301526127be81612782565b9050919050565b7f4e487b7100000000000000000000000000000000000000000000000000000000600052602260045260246000fd5b6000600282049050600182168061280c57607f821691505b60208210810361281f5761281e6127c5565b5b50919050565b7f455243313135353a2063616c6c6572206973206e6f7420746f6b656e206f776e60008201527f6572206f7220617070726f766564000000000000000000000000000000000000602082015250565b6000612881602e83611f16565b915061288c82612825565b604082019050919050565b600060208201905081810360008301526128b081612874565b9050919050565b7f455243313135353a206163636f756e747320616e6420696473206c656e67746860008201527f206d69736d617463680000000000000000000000000000000000000000000000602082015250565b6000612913602983611f16565b915061291e826128b7565b604082019050919050565b6000602082019050818103600083015261294281612906565b9050919050565b7f4e487b7100000000000000000000000000000000000000000000000000000000600052603260045260246000fd5b7f4e487b7100000000000000000000000000000000000000000000000000000000600052601160045260246000fd5b60006129b282611bf4565b91507fffffffffffffffffffffffffffffffffffffffffffffffffffffffffffffffff82036129e4576129e3612978565b5b600182019050919050565b7f4f776e61626c653a206e6577206f776e657220697320746865207a65726f206160008201527f6464726573730000000000000000000000000000000000000000000000000000602082015250565b6000612a4b602683611f16565b9150612a56826129ef565b604082019050919050565b60006020820190508181036000830152612a7a81612a3e565b9050919050565b7f4f776e61626c653a2063616c6c6572206973206e6f7420746865206f776e6572600082015250565b6000612ab7602083611f16565b9150612ac282612a81565b602082019050919050565b60006020820190508181036000830152612ae681612aaa565b9050919050565b60008190508160005260206000209050919050565b60006020601f8301049050919050565b600082821b905092915050565b600060088302612b4f7fffffffffffffffffffffffffffffffffffffffffffffffffffffffffffffffff82612b12565b612b598683612b12565b95508019841693508086168417925050509392505050565b6000819050919050565b6000612b96612b91612b8c84611bf4565b612b71565b611bf4565b9050919050565b6000819050919050565b612bb083612b7b565b612bc4612bbc82612b9d565b848454612b1f565b825550505050565b600090565b612bd9612bcc565b612be4818484612ba7565b505050565b5b81811015612c0857612bfd600082612bd1565b600181019050612bea565b5050565b601f821115612c4d57612c1e81612aed565b612c2784612b02565b81016020851015612c36578190505b612c4a612c4285612b02565b830182612be9565b50505b505050565b600082821c905092915050565b6000612c7060001984600802612c52565b1980831691505092915050565b6000612c898383612c5f565b9150826002028217905092915050565b612ca282611f0b565b67ffffffffffffffff811115612cbb57612cba611d6a565b5b612cc582546127f4565b612cd0828285612c0c565b600060209050601f831160018114612d035760008415612cf1578287015190505b612cfb8582612c7d565b865550612d63565b601f198416612d1186612aed565b60005b82811015612d3957848901518255600182019150602085019450602081019050612d14565b86831015612d565784890151612d52601f891682612c5f565b8355505b6001600288020188555050505b505050505050565b7f455243313135353a206d696e7420746f20746865207a65726f2061646472657360008201527f7300000000000000000000000000000000000000000000000000000000000000602082015250565b6000612dc7602183611f16565b9150612dd282612d6b565b604082019050919050565b60006020820190508181036000830152612df681612dba565b9050919050565b7f455243313135353a2069647320616e6420616d6f756e7473206c656e6774682060008201527f6d69736d61746368000000000000000000000000000000000000000000000000602082015250565b6000612e59602883611f16565b9150612e6482612dfd565b604082019050919050565b60006020820190508181036000830152612e8881612e4c565b9050919050565b6000612e9a82611bf4565b9150612ea583611bf4565b9250828201905080821115612ebd57612ebc612978565b5b92915050565b60006040820190508181036000830152612edd818561243a565b90508181036020830152612ef1818461243a565b90509392505050565b7f455243313135353a207472616e7366657220746f20746865207a65726f20616460008201527f6472657373000000000000000000000000000000000000000000000000000000602082015250565b6000612f56602583611f16565b9150612f6182612efa565b604082019050919050565b60006020820190508181036000830152612f8581612f49565b9050919050565b7f455243313135353a20696e73756666696369656e742062616c616e636520666f60008201527f72207472616e7366657200000000000000000000000000000000000000000000602082015250565b6000612fe8602a83611f16565b9150612ff382612f8c565b604082019050919050565b6000602082019050818103600083015261301781612fdb565b9050919050565b60006040820190506130336000830185611c6a565b6130406020830184611c6a565b9392505050565b7f455243313135353a2073657474696e6720617070726f76616c2073746174757360008201527f20666f722073656c660000000000000000000000000000000000000000000000602082015250565b60006130a3602983611f16565b91506130ae82613047565b604082019050919050565b600060208201905081810360008301526130d281613096565b9050919050565b600081519050919050565b600082825260208201905092915050565b6000613100826130d9565b61310a81856130e4565b935061311a818560208601611f27565b61312381611d59565b840191505092915050565b600060a0820190506131436000830188612599565b6131506020830187612599565b8181036040830152613162818661243a565b90508181036060830152613176818561243a565b9050818103608083015261318a81846130f5565b90509695505050505050565b6000815190506131a581611cc0565b92915050565b6000602082840312156131c1576131c0611b8c565b5b60006131cf84828501613196565b91505092915050565b60008160e01c9050919050565b600060033d11156132045760046000803e6132016000516131d8565b90505b90565b600060443d1061329457613219611b82565b60043d036004823e80513d602482011167ffffffffffffffff82111715613241575050613294565b808201805167ffffffffffffffff81111561325f5750505050613294565b80602083010160043d03850181111561327c575050505050613294565b61328b82602001850186611d99565b82955050505050505b90565b7f455243313135353a207472616e7366657220746f206e6f6e2d4552433131353560008201527f526563656976657220696d706c656d656e746572000000000000000000000000602082015250565b60006132f3603483611f16565b91506132fe82613297565b604082019050919050565b60006020820190508181036000830152613322816132e6565b9050919050565b7f455243313135353a204552433131353552656365697665722072656a6563746560008201527f6420746f6b656e73000000000000000000000000000000000000000000000000602082015250565b6000613385602883611f16565b915061339082613329565b604082019050919050565b600060208201905081810360008301526133b481613378565b9050919050565b600060a0820190506133d06000830188612599565b6133dd6020830187612599565b6133ea6040830186611c6a565b6133f76060830185611c6a565b818103608083015261340981846130f5565b9050969550505050505056fea264697066735822122068340f498488d8a2729fcb404b34a25e9a88c39a417b7c3cf466018227dfc9ba64736f6c63430008130033",
  "linkReferences": {},
  "deployedLinkReferences": {}
}